{
    "contractName": "DSM",
    "abi": [
        {
            "constant": true,
            "inputs": [],
            "name": "name",
            "outputs": [
                {
                    "name": "",
                    "type": "string"
                }
            ],
            "payable": false,
            "stateMutability": "view",
            "type": "function"
        },
        {
            "constant": true,
            "inputs": [
                {
                    "name": "",
                    "type": "uint256"
                }
            ],
            "name": "images",
            "outputs": [
                {
                    "name": "id",
                    "type": "uint256"
                },
                {
                    "name": "hash",
                    "type": "string"
                },
                {
                    "name": "description",
                    "type": "string"
                },
                {
                    "name": "tipAmount",
                    "type": "uint256"
                },
                {
                    "name": "author",
                    "type": "address"
                }
            ],
            "payable": false,
            "stateMutability": "view",
            "type": "function"
        },
        {
            "constant": true,
            "inputs": [],
            "name": "imageCount",
            "outputs": [
                {
                    "name": "",
                    "type": "uint256"
                }
            ],
            "payable": false,
            "stateMutability": "view",
            "type": "function"
        },
        {
            "constant": false,
            "inputs": [
                {
                    "name": "_hash",
                    "type": "string"
                },
                {
                    "name": "_desc",
                    "type": "string"
                }
            ],
            "name": "uploadImage",
            "outputs": [],
            "payable": false,
            "stateMutability": "nonpayable",
            "type": "function"
        }
    ],
    "bytecode": "60c0604052601a60808190527f446563656e7472616c697a656420536f6369616c204d6564696100000000000060a090815261003e9160009190610056565b50600060015534801561005057600080fd5b506100f1565b828054600181600116156101000203166002900490600052602060002090601f016020900481019282601f1061009757805160ff19168380011785556100c4565b828001600101855582156100c4579182015b828111156100c45782518255916020019190600101906100a9565b506100d09291506100d4565b5090565b6100ee91905b808211156100d057600081556001016100da565b90565b61070c806101006000396000f3fe60806040526004361061005b577c0100000000000000000000000000000000000000000000000000000000600035046306fdde03811461006057806384856482146100ea57806392053b6314610233578063a91b83141461025a575b600080fd5b34801561006c57600080fd5b50610075610396565b6040805160208082528351818301528351919283929083019185019080838360005b838110156100af578181015183820152602001610097565b50505050905090810190601f1680156100dc5780820380516001836020036101000a031916815260200191505b509250505060405180910390f35b3480156100f657600080fd5b506101146004803603602081101561010d57600080fd5b5035610424565b6040518086815260200180602001806020018581526020018473ffffffffffffffffffffffffffffffffffffffff1673ffffffffffffffffffffffffffffffffffffffff168152602001838103835287818151815260200191508051906020019080838360005b8381101561019357818101518382015260200161017b565b50505050905090810190601f1680156101c05780820380516001836020036101000a031916815260200191505b50838103825286518152865160209182019188019080838360005b838110156101f35781810151838201526020016101db565b50505050905090810190601f1680156102205780820380516001836020036101000a031916815260200191505b5097505050505050505060405180910390f35b34801561023f57600080fd5b5061024861057e565b60408051918252519081900360200190f35b34801561026657600080fd5b506103946004803603604081101561027d57600080fd5b81019060208101813564010000000081111561029857600080fd5b8201836020820111156102aa57600080fd5b803590602001918460018302840111640100000000831117156102cc57600080fd5b91908080601f016020809104026020016040519081016040528093929190818152602001838380828437600092019190915250929594936020810193503591505064010000000081111561031f57600080fd5b82018360208201111561033157600080fd5b8035906020019184600183028401116401000000008311171561035357600080fd5b91908080601f016020809104026020016040519081016040528093929190818152602001838380828437600092019190915250929550610584945050505050565b005b6000805460408051602060026001851615610100026000190190941693909304601f8101849004840282018401909252818152929183018282801561041c5780601f106103f15761010080835404028352916020019161041c565b820191906000526020600020905b8154815290600101906020018083116103ff57829003601f168201915b505050505081565b60026020818152600092835260409283902080546001808301805487519281161561010002600019011695909504601f81018590048502820185019096528581529094919390929091908301828280156104bf5780601f10610494576101008083540402835291602001916104bf565b820191906000526020600020905b8154815290600101906020018083116104a257829003601f168201915b50505060028085018054604080516020601f60001961010060018716150201909416959095049283018590048502810185019091528181529596959450909250908301828280156105515780601f1061052657610100808354040283529160200191610551565b820191906000526020600020905b81548152906001019060200180831161053457829003601f168201915b50505050600383015460049093015491929173ffffffffffffffffffffffffffffffffffffffff16905085565b60015481565b600180546040805160a081018252828152602080820187815282840187905260006060840181905233608085015294855260028252929093208151815591518051919492936105d893850192910190610645565b50604082015180516105f4916002840191602090910190610645565b50606082015160038201556080909101516004909101805473ffffffffffffffffffffffffffffffffffffffff191673ffffffffffffffffffffffffffffffffffffffff9092169190911790555050565b828054600181600116156101000203166002900490600052602060002090601f016020900481019282601f1061068657805160ff19168380011785556106b3565b828001600101855582156106b3579182015b828111156106b3578251825591602001919060010190610698565b506106bf9291506106c3565b5090565b6106dd91905b808211156106bf57600081556001016106c9565b9056fea165627a7a7230582030489ab3c5e24ea0183466aad218fcfd7aed564a2a227789ac08bb03d6fc85fc0029",
    "sourcePath": "/mnt/c/pr0/DSM/src/contracts/DSM.sol",
    "compiler": {
        "name": "solc",
        "version": "0.5.1+commit.c8a2cb62"
    },
    "functionHashes": {
        "imageCount()": "92053b63",
        "images(uint256)": "84856482",
        "name()": "06fdde03",
        "uploadImage(string,string)": "a91b8314"
    },
    "gasEstimates": {
        "creation": {
            "codeDepositCost": "360800",
            "executionCost": "infinite",
            "totalCost": "infinite"
        },
        "external": {
            "imageCount()": "422",
            "images(uint256)": "infinite",
            "name()": "infinite",
            "uploadImage(string,string)": "infinite"
        }
    }
}